{
  "contractName": "ReticulateAuth",
  "abi": [
    {
      "constant": false,
      "inputs": [
        {
          "name": "fileId",
          "type": "string"
        },
        {
          "name": "name",
          "type": "string"
        },
        {
          "name": "key",
          "type": "bytes1[]"
        }
      ],
      "name": "addFile",
      "outputs": [],
      "payable": false,
      "stateMutability": "nonpayable",
      "type": "function"
    },
    {
      "constant": false,
      "inputs": [
        {
          "name": "fileId",
          "type": "string"
        },
        {
          "name": "recipient",
          "type": "address"
        },
        {
          "name": "recipientKey",
          "type": "bytes1[]"
        },
        {
          "name": "level",
          "type": "uint8"
        }
      ],
      "name": "shareFile",
      "outputs": [],
      "payable": false,
      "stateMutability": "nonpayable",
      "type": "function"
    },
    {
      "constant": false,
      "inputs": [],
      "name": "destruct",
      "outputs": [],
      "payable": false,
      "stateMutability": "nonpayable",
      "type": "function"
    },
    {
      "constant": false,
      "inputs": [
        {
          "name": "fileId",
          "type": "string"
        },
        {
          "name": "revokee",
          "type": "address"
        }
      ],
      "name": "revokeShare",
      "outputs": [],
      "payable": false,
      "stateMutability": "nonpayable",
      "type": "function"
    },
    {
      "constant": false,
      "inputs": [
        {
          "name": "fileId",
          "type": "string"
        },
        {
          "name": "user",
          "type": "address"
        },
        {
          "name": "level",
          "type": "uint8"
        }
      ],
      "name": "modifyAccesLevel",
      "outputs": [],
      "payable": false,
      "stateMutability": "nonpayable",
      "type": "function"
    },
    {
      "constant": false,
      "inputs": [],
      "name": "RiticulateAuth",
      "outputs": [],
      "payable": false,
      "stateMutability": "nonpayable",
      "type": "function"
    },
    {
      "constant": true,
      "inputs": [
        {
          "name": "fileId",
          "type": "string"
        }
      ],
      "name": "getKeyForFile",
      "outputs": [
        {
          "name": "",
          "type": "bytes1[]"
        }
      ],
      "payable": false,
      "stateMutability": "view",
      "type": "function"
    },
    {
      "constant": false,
      "inputs": [
        {
          "name": "fileId",
          "type": "string"
        }
      ],
      "name": "removeFile",
      "outputs": [],
      "payable": false,
      "stateMutability": "nonpayable",
      "type": "function"
    }
  ],
  "bytecode": "0x6060604052341561000f57600080fd5b610f688061001e6000396000f30060606040526004361061008e576000357c0100000000000000000000000000000000000000000000000000000000900463ffffffff1680630e0ecbc4146100935780632958f788146101735780632b68b9c61461023b578063464232cb146102505780635a1a95d5146102cc5780636029006114610354578063638ed37614610369578063f1afe04d1461041b575b600080fd5b341561009e57600080fd5b610171600480803590602001908201803590602001908080601f0160208091040260200160405190810160405280939291908181526020018383808284378201915050505050509190803590602001908201803590602001908080601f0160208091040260200160405190810160405280939291908181526020018383808284378201915050505050509190803590602001908201803590602001908080602002602001604051908101604052809392919081815260200183836020028082843782019150505050505091905050610478565b005b341561017e57600080fd5b610239600480803590602001908201803590602001908080601f0160208091040260200160405190810160405280939291908181526020018383808284378201915050505050509190803573ffffffffffffffffffffffffffffffffffffffff169060200190919080359060200190820180359060200190808060200260200160405190810160405280939291908181526020018383602002808284378201915050505050509190803560ff169060200190919050506105ef565b005b341561024657600080fd5b61024e610758565b005b341561025b57600080fd5b6102ca600480803590602001908201803590602001908080601f0160208091040260200160405190810160405280939291908181526020018383808284378201915050505050509190803573ffffffffffffffffffffffffffffffffffffffff169060200190919050506107e9565b005b34156102d757600080fd5b610352600480803590602001908201803590602001908080601f0160208091040260200160405190810160405280939291908181526020018383808284378201915050505050509190803573ffffffffffffffffffffffffffffffffffffffff1690602001909190803560ff1690602001909190505061099f565b005b341561035f57600080fd5b610367610ae9565b005b341561037457600080fd5b6103c4600480803590602001908201803590602001908080601f01602080910402602001604051908101604052809392919081815260200183838082843782019150505050505091905050610b2b565b6040518080602001828103825283818151815260200191508051906020019060200280838360005b838110156104075780820151818401526020810190506103ec565b505050509050019250505060405180910390f35b341561042657600080fd5b610476600480803590602001908201803590602001908080601f01602080910402602001604051908101604052809392919081815260200183838082843782019150505050505091905050610c9b565b005b6000826001856040518082805190602001908083835b6020831015156104b3578051825260208201915060208101905060208303925061048e565b6001836020036101000a038019825116818451168082178552505050505050905001915050908152602001604051809103902060000190805190602001906104fc929190610d1c565b506001846040518082805190602001908083835b6020831015156105355780518252602082019150602081019050602083039250610510565b6001836020036101000a038019825116818451168082178552505050505050905001915050908152602001604051809103902060010160003373ffffffffffffffffffffffffffffffffffffffff1673ffffffffffffffffffffffffffffffffffffffff1681526020019081526020016000209050818160000190805190602001906105c2929190610d9c565b5060028160010160006101000a81548160ff021916908360028111156105e457fe5b021790555050505050565b6000806001866040518082805190602001908083835b60208310151561062a5780518252602082019150602081019050602083039250610605565b6001836020036101000a0380198251168184511680821785525050505050509050019150509081526020016040518091039020915060028081111561066b57fe5b8260010160003373ffffffffffffffffffffffffffffffffffffffff1673ffffffffffffffffffffffffffffffffffffffff16815260200190815260200160002060010160009054906101000a900460ff1660028111156106c857fe5b1415610750578160010160008673ffffffffffffffffffffffffffffffffffffffff1673ffffffffffffffffffffffffffffffffffffffff168152602001908152602001600020905083816000019080519060200190610729929190610d9c565b50828160010160006101000a81548160ff0219169083600281111561074a57fe5b02179055505b505050505050565b6000809054906101000a900473ffffffffffffffffffffffffffffffffffffffff1673ffffffffffffffffffffffffffffffffffffffff163373ffffffffffffffffffffffffffffffffffffffff1614156107e7576000809054906101000a900473ffffffffffffffffffffffffffffffffffffffff1673ffffffffffffffffffffffffffffffffffffffff16ff5b565b60006001836040518082805190602001908083835b60208310151561082357805182526020820191506020810190506020830392506107fe565b6001836020036101000a0380198251168184511680821785525050505050509050019150509081526020016040518091039020905060028081111561086457fe5b8160010160003373ffffffffffffffffffffffffffffffffffffffff1673ffffffffffffffffffffffffffffffffffffffff16815260200190815260200160002060010160009054906101000a900460ff1660028111156108c157fe5b141561099a576001836040518082805190602001908083835b6020831015156108ff57805182526020820191506020810190506020830392506108da565b6001836020036101000a038019825116818451168082178552505050505050905001915050908152602001604051809103902060010160008373ffffffffffffffffffffffffffffffffffffffff1673ffffffffffffffffffffffffffffffffffffffff168152602001908152602001600020600080820160006109839190610e63565b6001820160006101000a81549060ff021916905550505b505050565b60006001846040518082805190602001908083835b6020831015156109d957805182526020820191506020810190506020830392506109b4565b6001836020036101000a03801982511681845116808217855250505050505090500191505090815260200160405180910390209050600280811115610a1a57fe5b8160010160003373ffffffffffffffffffffffffffffffffffffffff1673ffffffffffffffffffffffffffffffffffffffff16815260200190815260200160002060010160009054906101000a900460ff166002811115610a7757fe5b1415610ae357818160010160008573ffffffffffffffffffffffffffffffffffffffff1673ffffffffffffffffffffffffffffffffffffffff16815260200190815260200160002060010160006101000a81548160ff02191690836002811115610add57fe5b02179055505b50505050565b336000806101000a81548173ffffffffffffffffffffffffffffffffffffffff021916908373ffffffffffffffffffffffffffffffffffffffff160217905550565b610b33610e8b565b6001826040518082805190602001908083835b602083101515610b6b5780518252602082019150602081019050602083039250610b46565b6001836020036101000a038019825116818451168082178552505050505050905001915050908152602001604051809103902060010160003373ffffffffffffffffffffffffffffffffffffffff1673ffffffffffffffffffffffffffffffffffffffff168152602001908152602001600020600001805480602002602001604051908101604052809291908181526020018280548015610c8f57602002820191906000526020600020906000905b82829054906101000a90047f0100000000000000000000000000000000000000000000000000000000000000027effffffffffffffffffffffffffffffffffffffffffffffffffffffffffffff191681526020019060010190602082600001049283019260010382029150808411610c1a5790505b50505050509050919050565b6001816040518082805190602001908083835b602083101515610cd35780518252602082019150602081019050602083039250610cae565b6001836020036101000a038019825116818451168082178552505050505050905001915050908152602001604051809103902060008082016000610d179190610e9f565b505050565b828054600181600116156101000203166002900490600052602060002090601f016020900481019282601f10610d5d57805160ff1916838001178555610d8b565b82800160010185558215610d8b579182015b82811115610d8a578251825591602001919060010190610d6f565b5b509050610d989190610ee7565b5090565b82805482825590600052602060002090601f01602090048101928215610e525791602002820160005b83821115610e2357835183826101000a81548160ff02191690837f0100000000000000000000000000000000000000000000000000000000000000900402179055509260200192600101602081600001049283019260010302610dc5565b8015610e505782816101000a81549060ff0219169055600101602081600001049283019260010302610e23565b505b509050610e5f9190610f0c565b5090565b50805460008255601f016020900490600052602060002090810190610e889190610ee7565b50565b602060405190810160405280600081525090565b50805460018160011615610100020316600290046000825580601f10610ec55750610ee4565b601f016020900490600052602060002090810190610ee39190610ee7565b5b50565b610f0991905b80821115610f05576000816000905550600101610eed565b5090565b90565b610f3991905b80821115610f3557600081816101000a81549060ff021916905550600101610f12565b5090565b905600a165627a7a723058202134025ed96562e4a1f7a99cb21932eeb74c73cbcd3bfaa951ae5d32731df66f0029",
  "source": "pragma solidity ^0.4.0;\n\n\ncontract ReticulateAuth {\n\n    //definition for a file type\n    struct File {\n        //the firendly name of the file\n        string name;\n        //the encrypted keys for each user with access\n        mapping(address => Permission) permissions;\n    }\n\n    ///enum for identifying access level\n    enum AccessLevel {\n        read,\n        write,\n        admin\n    }\n\n    //represents a users Permission on a file\n    struct Permission {\n        byte[] key;\n        AccessLevel level;\n    }\n\n    ///the owner of the contract\n    address private owner;\n\n    ///all of the files on the network\n    mapping(string => File) private files;\n\n    ///create a new BallotBox\n    function RiticulateAuth() public {\n        owner = msg.sender;\n    }\n\n    ///get the key for a file\n    function getKeyForFile(string fileId) public view returns(byte[]) {\n        return files[fileId].permissions[msg.sender].key;\n    }\n\n    ///add a file to the contracts register\n    function addFile(string fileId, string name, byte[] key) public {\n        files[fileId].name = name;\n        //setup the keys map\n        Permission storage p = files[fileId].permissions[msg.sender];\n        p.key = key;\n        p.level = AccessLevel.admin;\n    }\n\n    ///remove a file from the network\n    function removeFile(string fileId) public {\n        delete files[fileId];\n    }\n\n    ///share a file with another user\n    function shareFile(string fileId, address recipient, byte[] recipientKey, AccessLevel level) public {\n        File storage file = files[fileId];\n        //check that the sender has permission to perfrom this operation\n        if (file.permissions[msg.sender].level == AccessLevel.admin) {\n            Permission storage perm = file.permissions[recipient];\n\n            perm.key = recipientKey;\n            perm.level = level;\n        }\n    }\n\n    ///revoke a share to a file\n    function revokeShare(string fileId, address revokee) public {\n        File storage file = files[fileId];\n        if (file.permissions[msg.sender].level == AccessLevel.admin) {\n            delete files[fileId].permissions[revokee];\n        }\n    }\n\n    ///modify the access level of a user\n    function modifyAccesLevel(string fileId, address user, AccessLevel level) public {\n        File storage file = files[fileId];\n        if (file.permissions[msg.sender].level == AccessLevel.admin) {\n            file.permissions[user].level = level;\n        }\n    }\n\n    ///destroy the contract\n    function destruct() public {\n        //only the owner can destroy the contract\n        if (msg.sender == owner) {\n            selfdestruct(owner);\n        }\n    }\n}\n",
  "sourcePath": "/mnt/Data/dev/ethereum/riticulate/smart-contract/contracts/Reticulate.sol",
  "compiler": {
    "name": "solc",
    "version": "0.4.18+commit.9cf6e910.Emscripten.clang"
  },
  "schemaVersion": "1.0.1",
  "updatedAt": "2018-01-20T21:11:18.113Z"
}